:1000000054C092C06BC06AC069C068C067C066C097
:1000100065C064C063C062C061C060C05FC05EC0D4
:100020005DC05CC05BC000CDD914F13C28E5A16C7B
:1000300078B5509D894420034400690063006B003B
:1000400020005300740072006500650066006C00BB
:1000500061006E00640022035500530042007400EA
:1000600069006E0079002000540065006D0070008A
:100070006C006100740065000A033000300030003D
:10008000310012010101FF0000086666010006014F
:100090000102030109021200010100801909040094
:1000A0000000FF0000000403090411241FBECFED6F
:1000B000CDBF10E0A0E6B0E0E6EAF5E002C00590B2
:1000C0000D92A236B107D9F710E0A2E6B0E001C068
:1000D0001D92AE38B107E1F761D263C291CFDC0166
:1000E0009FEF8FEF46E2F0E018C02D918227E82FB6
:1000F000EF70E40F3591E82FE295892F932F31703F
:10010000E327EF709295392F9F70307E8327E40F9D
:10011000359193273170932783276A9532F780951D
:1001200090958D939D9308950F931F932F93DF9335
:10013000CF930FB70F938299FECF82990BC082990C
:1001400009C0829907C0829905C0829903C000E462
:100150000ABFACC0C0917600DD27C958DF4F0BE065
:1001600014E124E0829BE9CF3F934F936F9360B3F8
:1001700030E803C060B3432B4993442764712627BA
:10018000215020B32471A9F137953C3FA0F5622797
:10019000615060B3647137953C3F98F52627215034
:1001A000379520B324713C3F90F562276150379515
:1001B0003C3F60B36471A0F52627215037953C3F42
:1001C000C8F520B324716227615037953C3FB0F5E4
:1001D0000A9560B37AF064712627215037953C3F29
:1001E00088F520B324716227615037953C3F10F2A7
:1001F0002DC031C052C0612720B324713F774160C8
:10020000C6CF3F77426060B364712127C7CF3F7785
:100210004460612720B32471622761503795C8CFAD
:100220003F7748602127316060B3647126272150F1
:100230003795C6CF3F7740616127C1CF3F77406296
:100240002127C4CF3F7740646127C9CF3F774068FB
:10025000212700C08FCF30E43ABF0B500195C01B5F
:10026000D040288121FD2DC019811F7740918D003C
:10027000141799F4293691F4009167000023F1F0E6
:10028000409175004423D1F440936700409173007E
:1002900040938D00C8E6D0E02BC022272093620057
:1002A0006F914F913F910AB706FD45CF0F910FBF58
:1002B000CF91DF912F911F910F911895C1E6D0E05A
:1002C00016C0217059F320916200222339F3409126
:1002D0007500442399F700937500209374000091F2
:1002E00076004BE0401B40937600C0E6D0E001E092
:1002F00022B32B7E206111B3146122BB11BB14E128
:1003000030E830FF212722BB379547954C3FC0F599
:1003100030FF2127379522BB47954C3FA8F530FF8A
:1003200021273795000022BB47954C3F78F530FFD9
:1003300021273795000022BB47954C3F48F530FFF9
:100340002127699122BB379547954C3F18F530FF1F
:100350002127379522BB47954C3F00F530FF2127D9
:100360003795479522BB4C3FD8F430FF212737956E
:10037000362F479522BB4C3FA8F40A9512F614C0BD
:100380002127442722BBC2CF2127C5CF2127CBCF8E
:100390002127D1CF2127442722BBD7CF2127DACF4E
:1003A0002127DFCF2127E5CF2B7E22BB6F914F91F5
:1003B0003F9100E40ABFDF91CF9111B3022F20617A
:1003C00022BB1B7EDFBFDF912F91000011BB02BB60
:1003D0001F910F91189585B7836085BF8BB7806497
:1003E0008BBF8D9A939A8B9A789408951F93CF938D
:1003F000DF9380917500882309F473C09091760093
:1004000081E080936300809174008D3211F010E0E0
:100410005FC0CCE0D0E0C91BD109C958DF4F1E81B5
:100420008F8181111FEF8881807609F048C0898112
:10043000882321F41882198282E043C0853029F490
:100440008A8180937300959AA1C0863069F582E015
:10045000809363008B81813021F482E1C2E8D0E097
:1004600030C0823021F482E1C4E9D0E02AC0833078
:1004700009F08CC08A81882321F484E0C6EAD0E0A8
:1004800020C0813021F480E2C6E3D0E01AC082307F
:1004900021F482E2C6E5D0E014C0833009F076C0D2
:1004A0008AE0C8E7D0E00DC0883019F481E0888385
:1004B00008C08A3009F06AC0188281E002C0CE010B
:1004C0006BD0181708F0182FD0936600C093650002
:1004D0001093640083EC8093680010926700109280
:1004E000750080916700882309F043C04091630044
:1004F000442309F43EC08091680098E889278093DE
:10050000680090916400993010F018E005C09923BC
:1005100011F410E022C0192F20916500309166007F
:10052000413051F4F901A9E6B0E081918D938E2F0D
:10053000821B8117D0F30AC0F901A9E6B0E08491CB
:1005400031968D938E2F821B8117C8F3F09366002E
:10055000E0936500911B9093640089E690E0612F21
:10056000BEDD1D5F109367001350183011F010921C
:1005700063008AE002C0815019F0849BFCCF08C060
:100580001092730010928D00959802C080E09BCF6E
:10059000DF91CF911F91089588E008951CDF26DF39
:0605A000FECFF894FFCF2E
:0205A600D25A27
:00000001FF
