:1000000041C07FC058C0BAC20CC355C054C053C011
:1000100052C051C050C04FC04EC04DC04CC04BC06C
:100020004AC049C048C000CDD914F13C28E5A16CB4
:1000300078B5509D89441E0355005300420074005A
:1000400069006E0079002000490052002F004C002A
:100050004300440012010101FF000008EB0302000D
:1000600006010002000109021900010100802809AF
:1000700004000001FF0000000705810008000004E3
:100080000309040011241FBECFEDCDBF10E0A0E690
:10009000B0E0E6EEF7E002C005900D92A436B1079D
:1000A000D9F710E0A4E6B0E001C01D92AA3BB10769
:1000B000E1F778D396C3A4CFDC019FEF8FEF46E240
:1000C000F0E018C02D918227E82FEF70E40F3591F2
:1000D000E82FE295892F932F3170E327EF709295E7
:1000E000392F9F70307E8327E40F3591932731702D
:1000F000932783276A9532F7809590958D939D93EA
:1001000008950F931F932F93DF93CF930FB70F9300
:100110008299FECF82990BC0829909C0829907C04B
:10012000829905C0829903C000E40ABFACC0C091A7
:10013000A200DD27CD55DF4F0BE014E124E0829BC8
:10014000E9CF3F934F936F9360B330E803C060B340
:10015000432B4993442764712627215020B32471EF
:10016000A9F137953C3FA0F56227615060B36471F7
:1001700037953C3F98F526272150379520B32471B9
:100180003C3F90F56227615037953C3F60B3647106
:10019000A0F52627215037953C3FC8F520B32471A0
:1001A0006227615037953C3FB0F50A9560B37AF00D
:1001B00064712627215037953C3F88F520B3247180
:1001C0006227615037953C3F10F22DC031C052C0BC
:1001D000612720B324713F774160C6CF3F774260EB
:1001E00060B364712127C7CF3F774460612720B394
:1001F0002471622761503795C8CF3F774860212727
:10020000316060B36471262721503795C6CF3F77A0
:1002100040616127C1CF3F7740622127C4CF3F773C
:1002200040646127C9CF3F774068212700C08FCF46
:1002300030E43ABF0B500195C01BD040288121FD0E
:100240002DC019811F774091B900141799F42936F0
:1002500091F4009193000023F1F04091A100442318
:10026000D1F44093930040919F004093B900C4E9BA
:10027000D0E02BC02227209364006F914F913F91D3
:100280000AB706FD45CF0F910FBFCF91DF912F9198
:100290001F910F911895C1E6D0E016C0217059F357
:1002A00020916400222339F34091A100442399F75F
:1002B0000093A1002093A0000091A2004BE0401BFE
:1002C0004093A200C0E6D0E001E022B32B7E206183
:1002D00011B3146122BB11BB14E130E830FF2127B8
:1002E00022BB379547954C3FC0F530FF2127379506
:1002F00022BB47954C3FA8F530FF212737950000DA
:1003000022BB47954C3F78F530FF212737950000F9
:1003100022BB47954C3F48F530FF2127699122BB0E
:10032000379547954C3F18F530FF2127379522BB6D
:1003300047954C3F00F530FF21273795479522BB65
:100340004C3FD8F430FF21273795362F479522BBF5
:100350004C3FA8F40A9512F614C02127442722BB6B
:10036000C2CF2127C5CF2127CBCF2127D1CF21270E
:10037000442722BBD7CF2127DACF2127DFCF212760
:10038000E5CF2B7E22BB6F914F913F9100E40ABFD6
:10039000DF91CF9111B3022F206122BB1B7EDFBF03
:1003A000DF912F91000011BB02BB1F910F91189597
:1003B00085B7836085BF8BB780648BBF8D9A939A16
:1003C0008B9A789408951F93CF93DF936091A10047
:1003D000662309F471C08091A200CCE0D0E0C81B74
:1003E000D109CD55DF4F81E0809365008091A00059
:1003F0008D3209F053C01E818F8181111FEF8881DA
:100400008076E1F58981882321F41882198292E0AF
:100410003DC0853029F48A8180939F00959AA8C0B9
:10042000863009F582E0809365008B81813021F46C
:1004300092E1C4E5D0E02AC0823021F499E1C6E619
:10044000D0E024C0833009F093C08A81882321F44E
:1004500094E0CFE7D0E01AC0823009F089C09EE175
:10046000C6E3D0E013C0883019F481E0888304C06B
:100470008A3009F07DC0188291E008C0CE012BD1EE
:10048000982F8F3F19F483E080936500191708F0C7
:10049000192FD0936800C093670005C0635011F016
:1004A000CE0171D110E01093660083EC809394002C
:1004B000109293001092A10080919300882309F07C
:1004C0004AC040916500442309F445C080919400DE
:1004D00098E889278093940010916600193010F0F5
:1004E00018E002C0112359F1433031F485E990E05E
:1004F000612F1AD1182F1EC020916700309168001B
:10050000413051F4F901A5E9B0E081918D938E2F2E
:10051000821B8117D0F30AC0F901A5E9B0E08491EC
:1005200031968D938E2F821B8117C8F3F09368004C
:10053000E093670080916600811B8093660085E9E7
:1005400090E0612FB9DD1D5F1093930013501830B8
:1005500010F4109265008AE002C0815019F0849B6B
:10056000FCCF08C010929F001092B900959802C06D
:1005700090E08ECFDF91CF911F9108951F920F923F
:100580000FB60F9211242F938F939F93EF93FF93A6
:1005900019BE78948EB590E489278EBD84B595B543
:1005A000E0916900F0916A008F939F93805C9F4F68
:1005B0008E1B9F0B880F892F881F990B9195282FD1
:1005C0009F918F9190936A00809369008A57924C13
:1005D0009BBD8ABDF89490916B009F3F99F0953236
:1005E00008F09051809162008F3F49F410926C00A6
:1005F000992329F0E92FF0E0E459FF4F22839F5F10
:1006000090936B007894959A88E4F89489BFFF9151
:10061000EF919F918F912F910F900FBE0F901F9090
:1006200018951F920F920FB60F9211248F939F93DC
:1006300019BE78949598F89490916B00892F845006
:100640008B3F60F4809162008F3F41F480916D0098
:100650008F5F80936D00915090936C0010926B00AF
:1006600078948EB58F7B8EBDF89488E489BF9F9176
:100670008F910F900FBE0F901F90189590EF00C0B4
:100680009A95E9F78A95D1F7089598B3907F982BBA
:1006900098BBC69A8FE787BBC69880E787BB08954B
:1006A0001F93182F20E288B328BBC69A00C096B3C8
:1006B00088BB88B328BBC69A00C036B388BB9F707E
:1006C00093FDF1CF812F82958F70DFDF812F8F70A7
:1006D000DCDF1F910895FC018181882319F18130AD
:1006E00031F410926C008FEF8093620016C082305C
:1006F00071F4F89480916C00882329F082818093B2
:1007000062008FEF02C0108281E0789408958431F6
:1007100011F4C49802C0853111F080E00895C49AA4
:1007200080E0089588E00895CF93DF93EC01509125
:100730006C005D5F4091620020E030E01BC0451717
:1007400068F0F89480916B00882319F08FEF809304
:100750006B008FEF80936200789411C0FE01E20F6E
:10076000F31FA42FB0E0A459BF4F8C9180832F5F5B
:100770003F4F4F5F922F261710F340936200892F4F
:10078000DF91CF9108951F93CF93DF93EC01162F44
:1007900003C0899185DF11501123D9F7DF91CF91E3
:1007A0001F9108958FED8DBF80E787BB18BA83E056
:1007B0006CDF89E263DF83E068DF81E05FDF82E393
:1007C0006FDF88E26DDF81E06BDF86E069DF8CE060
:1007D00067DF8D9A82E88EBD88E489BFE9DDF3DDAD
:0607E000FECFF894FFCFEC
:0407E600D25AFF00E4
:00000001FF
