:1000000041C07FC058C0E5C237C355C054C053C0BB
:1000100052C051C050C04FC04EC04DC04CC04BC06C
:100020004AC049C048C000CDD914F13C28E5A16CB4
:1000300078B5509D89441E0355005300420074005A
:1000400069006E0079002000490052002F004C002A
:10005000430044000403090412010101FF000008E9
:10006000EB03020006010002000109021900010170
:100070000080280904000001FF000000070581003E
:100080000800000011241FBECFEDCDBF10E0A0E698
:10009000B0E0EAEDF7E002C005900D92A436B1079A
:1000A000D9F710E0A4E6B0E001C01D92AA3BB10769
:1000B000E1F774D390C3A4CFDC019FEF8FEF46E24A
:1000C000F0E018C02D918227E82FEF70E40F3591F2
:1000D000E82FE295892F932F3170E327EF709295E7
:1000E000392F9F70307E8327E40F3591932731702D
:1000F000932783276A9532F7809590958D939D93EA
:1001000008950F931F932F93DF93CF930FB70F9300
:100110008299FECF82990BC0829909C0829907C04B
:10012000829905C0829903C000E40ABFACC0C091A7
:10013000A200DD27CD55DF4F0BE014E124E0829BC8
:10014000E9CF3F934F936F9360B330E803C060B340
:10015000432B4993442764712627215020B32471EF
:10016000A9F137953C3FA0F56227615060B36471F7
:1001700037953C3F98F526272150379520B32471B9
:100180003C3F90F56227615037953C3F60B3647106
:10019000A0F52627215037953C3FC8F520B32471A0
:1001A0006227615037953C3FB0F50A9560B37AF00D
:1001B00064712627215037953C3F88F520B3247180
:1001C0006227615037953C3F10F22DC031C052C0BC
:1001D000612720B324713F774160C6CF3F774260EB
:1001E00060B364712127C7CF3F774460612720B394
:1001F0002471622761503795C8CF3F774860212727
:10020000316060B36471262721503795C6CF3F77A0
:1002100040616127C1CF3F7740622127C4CF3F773C
:1002200040646127C9CF3F774068212700C08FCF46
:1002300030E43ABF0B500195C01BD040288121FD0E
:100240002DC019811F774091B900141799F42936F0
:1002500091F4009193000023F1F04091A100442318
:10026000D1F44093930040919F004093B900C4E9BA
:10027000D0E02BC02227209364006F914F913F91D3
:100280000AB706FD45CF0F910FBFCF91DF912F9198
:100290001F910F911895C1E6D0E016C0217059F357
:1002A00020916400222339F34091A100442399F75F
:1002B0000093A1002093A0000091A2004BE0401BFE
:1002C0004093A200C0E6D0E001E022B32B7E206183
:1002D00011B3146122BB11BB14E130E830FF2127B8
:1002E00022BB379547954C3FC0F530FF2127379506
:1002F00022BB47954C3FA8F530FF212737950000DA
:1003000022BB47954C3F78F530FF212737950000F9
:1003100022BB47954C3F48F530FF2127699122BB0E
:10032000379547954C3F18F530FF2127379522BB6D
:1003300047954C3F00F530FF21273795479522BB65
:100340004C3FD8F430FF21273795362F479522BBF5
:100350004C3FA8F40A9512F614C02127442722BB6B
:10036000C2CF2127C5CF2127CBCF2127D1CF21270E
:10037000442722BBD7CF2127DACF2127DFCF212760
:10038000E5CF2B7E22BB6F914F913F9100E40ABFD6
:10039000DF91CF9111B3022F206122BB1B7EDFBF03
:1003A000DF912F91000011BB02BB1F910F91189597
:1003B00085B7836085BF8BB780648BBF8D9A939A16
:1003C0008B9A789408951F93CF93DF936091A10047
:1003D000662309F471C08091A200CCE0D0E0C81B74
:1003E000D109CD55DF4F81E0809365008091A00059
:1003F0008D3209F053C01E818F8181111FEF8881DA
:10040000807669F58981811104C01882198282E0A1
:100410003DC0853029F48A8180939F00959AA3C0BE
:10042000863091F482E0809365008B818130F9F011
:10043000823009F1833009F096C08A818823F9F06F
:10044000823009F090C01FC0883019F481E08883A1
:100450001DC08A3009F087C0188281E017C0CE0124
:1004600038D18F3F99F493E0909365000FC082E1FB
:10047000C8E5D0E00BC089E1CAE6D0E007C084E05F
:10048000C4E5D0E003C08EE1C6E3D0E0181708F061
:10049000182FD0936700C093660005C0635011F019
:1004A000CE0164D110E01093680083EC8093940037
:1004B000109293001092A1008091930081114CC082
:1004C00080916500882309F447C09091940028E842
:1004D00092279093940010916800193018F411231A
:1004E00079F101C018E0833031F4612F85E990E0A3
:1004F00017D1182F20C0E0916600F091670081307D
:1005000061F4EF01A5E9B0E09A2F89918D93FE0186
:100510008A2F891B8117C8F30AC0A5E9B0E08A2F8A
:10052000949131969D939A2F981B9117C8F3F0934D
:100530006700E093660080916800811B80936800EB
:10054000612F85E990E0B8DD812F8D5F8093930066
:10055000183010F4109265008AE002C0815029F032
:10056000849BFCCF07C080E093CF10929F00109235
:10057000B9009598DF91CF911F91089598B3907F1E
:10058000982B98BBC69A8FE787BBC69880E787BB36
:100590000895CF93C82F80E228B388BBC69A00C0C5
:1005A00096B328BB28B388BBC69A00C036B328BB15
:1005B00093FDF2CF8C2F82958F70E0DF8C2F8F70A0
:1005C000CF91DCCF90EF00C09A95E9F78A95D1F7EB
:1005D00008951F920F920FB60F9211242F938F93AD
:1005E0009F93EF93FF9319BE78948EB590E489277B
:1005F0008EBD84B595B5E0916900F0916A008F9346
:100600009F93805C9F4F8E1B9F0B880F892F881FA5
:10061000990B9195282F9F918F9190936A008093C9
:1006200069008A57924C9BBD8ABDF89480916B00FB
:100630008F3F99F0853208F08051909162009F3F82
:1006400049F410926C00882329F0E82FF0E0E45977
:10065000FF4F22838F5F80936B007894959A88E494
:10066000F89489BFFF91EF919F918F912F910F90F7
:100670000FBE0F901F9018951F920F920FB60F92FA
:1006800011248F939F9319BE78949598F894909124
:100690006B00892F84508B3F60F4809162008F3F04
:1006A00041F480916D008F5F80936D009150909325
:1006B0006C0010926B0078948EB58F7B8EBDF89491
:1006C00088E489BF9F918F910F900FBE0F901F906C
:1006D0001895FC018181882309F1813031F4109251
:1006E0006C008FEF8093620017C0823071F4F89431
:1006F00080916C00882329F08281809362008FEFC3
:1007000002C0108281E078940895843111F4C49875
:1007100003C0853109F4C49A80E0089588E0089503
:1007200020916C002D5F30916200DC0180E017C0E9
:10073000E21778F0E0936200F89490916B009923AF
:1007400019F09FEF90936B009FEF90936200789465
:100750000895F0E0E459FF4F90819D938F5FE82F5B
:10076000E30F8613E5CFE093620008950F931F9384
:10077000CF93DF931F92CDB7DD278C0107C0F8011F
:1007800081918F01698305DF698161506111F7CF24
:100790000F90DF91CF911F910F9108958FED8DBF35
:1007A00080E787BB18BA83E0E9DE0CDF83E0E6DE92
:1007B00009DF82E3EEDE88E2ECDE81E0EADE86E05D
:1007C000E8DE8CE0E6DE8D9A82E88EBD88E489BFA3
:0A07D000EFDDF9DDFECFF894FFCF56
:0407DA00D25AFF00F0
:00000001FF
