:1000000039C077C050C04FC04EC04DC04CC04BC06F
:100010004AC049C048C047C046C045C044C043C0AC
:1000200042C041C040C000CDD914F13C28E5A16CCC
:1000300078B5509D89441603550053004200740062
:1000400069006E007900490053005000120101015F
:10005000FF00000881179F0C060100020001090241
:10006000120001010080320904000000FF000000BE
:100070000403090411241FBECFEDCDBF10E0A0E69C
:10008000B0E0ECEFF7E002C005900D92A236B107A8
:10009000D9F710E0A2E6B0E001C01D92AE39B10779
:1000A000E1F7A5D3A9C3ACCFDC019FEF8FEF46E208
:1000B000F0E018C02D918227E82FEF70E40F359102
:1000C000E82FE295892F932F3170E327EF709295F7
:1000D000392F9F70307E8327E40F3591932731703D
:1000E000932783276A9532F7809590958D939D93FA
:1000F00008950F931F932F93DF93CF930FB70F9311
:100100008299FECF82990BC0829909C0829907C05B
:10011000829905C0829903C000E40ABFACC0C091B7
:100120008600DD27C957DF4F0BE01CE024E0829BEF
:10013000E9CF3F934F936F9360B330E803C060B350
:10014000432B499344276C702627215020B32C70F1
:10015000A9F137953C3FA0F56227615060B36C7000
:1001600037953C3F98F526272150379520B32C70C2
:100170003C3F90F56227615037953C3F60B36C700F
:10018000A0F52627215037953C3FC8F520B32C70A9
:100190006227615037953C3FB0F50A9560B37AF01D
:1001A0006C702627215037953C3F88F520B32C7082
:1001B0006227615037953C3F10F22DC031C052C0CC
:1001C000612720B32C703F774160C6CF3F774260F4
:1001D00060B36C702127C7CF3F774460612720B39D
:1001E0002C70622761503795C8CF3F774860212730
:1001F000316060B36C70262721503795C6CF3F77AA
:1002000040616127C1CF3F7740622127C4CF3F774C
:1002100040646127C9CF3F774068212700C08FCF56
:1002200030E43ABF0B500195C01BD040288121FD1E
:100230002DC019811F7740919D00141799F429361C
:1002400091F4009177000023F1F040918500442360
:10025000D1F4409377004091830040939D00C8E71C
:10026000D0E02BC02227209362006F914F913F91E5
:100270000AB706FD45CF0F910FBFCF91DF912F91A8
:100280001F910F911895C1E6D0E016C0217059F367
:1002900020916200222339F340918500442399F78D
:1002A0000093850020938400009186004BE0401B62
:1002B00040938600C0E6D0E001E022B3237F2860AF
:1002C00011B31C6022BB11BB1CE030E830FF2127BA
:1002D00022BB379547954C3FC0F530FF2127379516
:1002E00022BB47954C3FA8F530FF212737950000EA
:1002F00022BB47954C3F78F530FF2127379500000A
:1003000022BB47954C3F48F530FF2127699122BB1E
:10031000379547954C3F18F530FF2127379522BB7D
:1003200047954C3F00F530FF21273795479522BB75
:100330004C3FD8F430FF21273795362F479522BB05
:100340004C3FA8F40A9512F614C02127442722BB7B
:10035000C2CF2127C5CF2127CBCF2127D1CF21271E
:10036000442722BBD7CF2127DACF2127DFCF212770
:10037000E5CF237F22BB6F914F913F9100E40ABFED
:10038000DF91CF9111B3022F286022BB137FDFBF13
:10039000DF912F91000011BB02BB1F910F911895A7
:1003A00085B7836085BF8BB780648BBF8D9A969A23
:1003B0008E9A789408951F93CF93DF936091850070
:1003C000662309F471C080918600CCE0D0E0C81BA0
:1003D000D109C957DF4F81E0809363008091840089
:1003E0008D3209F053C01E818F8181111FEF8881EA
:1003F0008076E1F58981882321F41882198292E0C0
:100400003DC0853029F48A8180938300959AA8C0E5
:10041000863009F582E0809363008B81813021F47E
:1004200092E1CCE4D0E02AC0823021F492E1CEE522
:10043000D0E024C0833009F093C08A81882321F45E
:1004400094E0C0E7D0E01AC0823009F089C096E19C
:10045000C6E3D0E013C0883019F481E0888304C07B
:100460008A3009F07DC0188291E008C0CE01D1D059
:10047000982F8F3F19F483E080936300191708F0D9
:10048000192FD0936600C093650005C0635011F02A
:10049000CE0154D110E01093640083EC8093780077
:1004A000109277001092850080917700882309F0E0
:1004B0004AC040916300442309F445C0809178000C
:1004C00098E889278093780010916400193010F023
:1004D00018E002C0112359F1433031F489E790E06C
:1004E000612F17D1182F1EC0209165003091660032
:1004F000413051F4F901A9E7B0E081918D938E2F3D
:10050000821B8117D0F30AC0F901A9E7B0E08491FA
:1005100031968D938E2F821B8117C8F3F09366005E
:10052000E093650080916400811B8093640089E7FB
:1005300090E0612FB9DD1D5F1093770013501830E4
:1005400010F4109263008AE002C0815019F0839B7E
:10055000FCCF08C01092830010929D00959802C0B5
:1005600090E08ECFDF91CF911F910895FC01DB01C8
:100570006091670022C0708190E050E820E030E098
:10058000852F872309F0C59A062E00C000000A9423
:10059000E1F7C79A062E00C000000A94E1F7990F10
:1005A000B6999F5FC598C79856952F5F3F4F2830E3
:1005B000310531F7415031969D934423E1F608957A
:1005C00020916A0030916B002F5F3F4F30936B009A
:1005D00020936A002150304080916E0087FF02C056
:1005E000220F331F80936F0020FF03C08860809329
:1005F0006F00C901892F99278695809370003695E1
:100600002795209371008FE690E063E770E044E067
:10061000ADCFFC013181332311F488E008953130EE
:1006200019F486B3808347C0323019F4828188BBC5
:100630006CC0BC016E5F7F4F4281242F277081E028
:1006400090E0982F01C0990F2A95EAF7333021F4F2
:1006500088B39095982304C0343021F488B3982B44
:1006600098BB53C03D3011F447BB14C0353061F422
:10067000409367008481882311F091E101C091E0EB
:10068000949881EB87BBECCF363021F417BA18BAB7
:10069000949A3BC088B38823D1F1373031F4CB0131
:1006A000BF0144E063DF84E008953E3031F4CB01C4
:1006B000BF0141E05BDF81E00895383031F44093C1
:1006C000680083818093690020C084819581909324
:1006D0006B0080936A00393011F480E203C03B3034
:1006E00029F480EA80936E008FEF089582819381D0
:1006F00090936D0080936C003A3011F480E403C055
:100700003C3029F480EC80936E0080E0089580E016
:1007100008950F931F93CF93DF93062FEC0110E002
:1007200005C04EDF8091760089931F5F1017C8F3D4
:10073000802FDF91CF911F910F9108957F928F921B
:100740009F92AF92BF92CF92DF92EF92FF920F9360
:100750001F93CF93DF93862EA0906C00B0906D0016
:1007600090906800C090690020916700E22EFF24FD
:1007700075E0EE0CFF1C7A95E1F78C01DD2460E654
:10078000762E25C0F80180818093720019DF809158
:100790006F00872580936F00C0E0D0E012C08FE625
:1007A00090E063E770E044E0E1DE909176008091B4
:1007B0007200981721F4991511F09C1529F4CE0DAB
:1007C000DF1DCA15DB0558F3D3940F5F1F4FD814F4
:1007D000C8F2DF91CF911F910F91FF90EF90DF90C2
:1007E000CF90BF90AF909F908F907F900895949AF4
:0C07F0008C9AD6DDE0DDFECFF894FFCF40
:0207FC00D25ACF
:00000001FF
