:1000000039C077C050C04FC04EC04DC04CC04BC06F
:100010004AC049C048C047C046C045C044C043C0AC
:1000200042C041C040C000CDD914F13C28E5A16CCC
:1000300078B5509D89441603550053004200740062
:1000400069006E0079004900530050000403090460
:1000500012010101FF00000881179F0C0601000238
:1000600000010902120001010080320904000000B1
:10007000FF00000011241FBECFEDCDBF10E0A0E6B1
:10008000B0E0E6EFF7E002C005900D92A236B107AE
:10009000D9F710E0A2E6B0E001C01D92AE39B10779
:1000A000E1F7A2D3A6C3ACCFDC019FEF8FEF46E20E
:1000B000F0E018C02D918227E82FEF70E40F359102
:1000C000E82FE295892F932F3170E327EF709295F7
:1000D000392F9F70307E8327E40F3591932731703D
:1000E000932783276A9532F7809590958D939D93FA
:1000F00008950F931F932F93DF93CF930FB70F9311
:100100008299FECF82990BC0829909C0829907C05B
:10011000829905C0829903C000E40ABFACC0C091B7
:100120008600DD27C957DF4F0BE01CE024E0829BEF
:10013000E9CF3F934F936F9360B330E803C060B350
:10014000432B499344276C702627215020B32C70F1
:10015000A9F137953C3FA0F56227615060B36C7000
:1001600037953C3F98F526272150379520B32C70C2
:100170003C3F90F56227615037953C3F60B36C700F
:10018000A0F52627215037953C3FC8F520B32C70A9
:100190006227615037953C3FB0F50A9560B37AF01D
:1001A0006C702627215037953C3F88F520B32C7082
:1001B0006227615037953C3F10F22DC031C052C0CC
:1001C000612720B32C703F774160C6CF3F774260F4
:1001D00060B36C702127C7CF3F774460612720B39D
:1001E0002C70622761503795C8CF3F774860212730
:1001F000316060B36C70262721503795C6CF3F77AA
:1002000040616127C1CF3F7740622127C4CF3F774C
:1002100040646127C9CF3F774068212700C08FCF56
:1002200030E43ABF0B500195C01BD040288121FD1E
:100230002DC019811F7740919D00141799F429361C
:1002400091F4009177000023F1F040918500442360
:10025000D1F4409377004091830040939D00C8E71C
:10026000D0E02BC02227209362006F914F913F91E5
:100270000AB706FD45CF0F910FBFCF91DF912F91A8
:100280001F910F911895C1E6D0E016C0217059F367
:1002900020916200222339F340918500442399F78D
:1002A0000093850020938400009186004BE0401B62
:1002B00040938600C0E6D0E001E022B3237F2860AF
:1002C00011B31C6022BB11BB1CE030E830FF2127BA
:1002D00022BB379547954C3FC0F530FF2127379516
:1002E00022BB47954C3FA8F530FF212737950000EA
:1002F00022BB47954C3F78F530FF2127379500000A
:1003000022BB47954C3F48F530FF2127699122BB1E
:10031000379547954C3F18F530FF2127379522BB7D
:1003200047954C3F00F530FF21273795479522BB75
:100330004C3FD8F430FF21273795362F479522BB05
:100340004C3FA8F40A9512F614C02127442722BB7B
:10035000C2CF2127C5CF2127CBCF2127D1CF21271E
:10036000442722BBD7CF2127DACF2127DFCF212770
:10037000E5CF237F22BB6F914F913F9100E40ABFED
:10038000DF91CF9111B3022F286022BB137FDFBF13
:10039000DF912F91000011BB02BB1F910F911895A7
:1003A00085B7836085BF8BB780648BBF8D9A969A23
:1003B0008E9A789408951F93CF93DF936091850070
:1003C000662309F471C080918600CCE0D0E0C81BA0
:1003D000D109C957DF4F81E0809363008091840089
:1003E0008D3209F053C01E818F8181111FEF8881EA
:1003F000807669F58981811104C01882198282E0B2
:100400003DC0853029F48A8180938300959AA3C0EA
:10041000863091F482E0809363008B818130F9F023
:10042000823009F1833009F096C08A818823F9F07F
:10043000823009F090C01FC0883019F481E08883B1
:100440001DC08A3009F087C0188281E017C0CE0134
:10045000DED08F3F99F493E0909363000FC082E168
:10046000C0E5D0E00BC082E1C2E6D0E007C084E086
:10047000CCE4D0E003C086E1C6E3D0E0181708F072
:10048000182FD0936500C093640005C0635011F02D
:10049000CE015ED110E01093660083EC809378006B
:1004A00010927700109285008091770081114CC0E6
:1004B00080916300882309F447C09091780028E870
:1004C00092279093780010916600193018F4112348
:1004D00079F101C018E0833031F4612F89E790E0B1
:1004E00016D1182F20C0E0916400F0916500813092
:1004F00061F4EF01A9E7B0E09A2F89918D93FE0195
:100500008A2F891B8117C8F30AC0A9E7B0E08A2F98
:10051000949131969D939A2F981B9117C8F3F0935D
:100520006500E093640080916600811B8093660003
:10053000612F89E790E0B8DD812F8D5F8093770090
:10054000183010F4109263008AE002C0815029F044
:10055000839BFCCF07C080E093CF10928300109262
:100560009D009598DF91CF911F91089527C041502C
:10057000DC01FD91CD0128E030E0E0E850E0AE2F55
:10058000AF2309F0C59AA09167000A2E00C00000B1
:100590000A94E1F7C79AA09167000A2E00C00000F4
:1005A0000A94E1F7550FB6995F5FC598C798E6952D
:1005B0002150310921F7FB015193BF014111D7CFE0
:1005C000089580916A0090916B009C012F5F3F4FCE
:1005D00030936B0020936A0020916C0027FF02C0CB
:1005E000880F991F80FF01C02860209373009C0131
:1005F000232F332726952093740096958795809313
:10060000750044E06FE670E083E790E0AFCFFC0157
:100610002181222309F479C0213019F486B3808323
:1006200047C03281223011F438BB6DC0432F477070
:1006300081E090E0042E01C0880F0A94EAF723308D
:1006400021F498B38095892317C0243021F498B3FE
:10065000982B98BB58C02D3011F437BB15C02530EE
:1006600069F4309367008481811102C081E001C088
:1006700081E1949891EB97BB88BB45C0263021F46B
:1006800017BA18BA949A3FC088B3811101C03BC011
:10069000273039F444E0BF01CF01029667DF84E0E0
:1006A00008952E3039F441E0BF01CF0102965EDF9C
:1006B00081E00895283039F4828180936800838135
:1006C0008093690020C08481958190936B00809312
:1006D0006A00293011F480E203C02B3029F480EA4B
:1006E00080936C008FEF08958281938190936E00C8
:1006F00080936D002A3011F480E403C02C3019F48B
:1007000080EC80936C0080E0089588E00895EF927B
:10071000FF920F931F93CF93DF931F92CDB7DD27E7
:100720008C01862F780108C089834BDF909172007D
:10073000F70191937F0189819E2D901B9817A0F35B
:100740000F90DF91CF911F910F91FF90EF9008953F
:10075000CF92DF92EF92FF920F931F93CF93DF938D
:100760007C01D62EEC01E0E6CE2E31C0899180933B
:10077000760027DF809173008C258093730000E062
:1007800010E01EC044E06FE670E083E790E0EEDE2C
:100790008091720090917600891308C09091680052
:1007A000891721F090916900891311C02091670089
:1007B00030E075E0220F331F7A95E1F7020F131F27
:1007C00080916D0090916E0008171907D8F28C2F58
:1007D0008E198D1558F2DF91CF911F910F91FF90D7
:1007E000EF90DF90CF900895949A8C9AD9DDE3DD55
:0607F000FECFF894FFCFDC
:0207F600D25AD5
:00000001FF
