:100000003AC078C051C050C04FC04EC04DC04CC067
:100010004BC04AC049C048C047C046C045C044C0A4
:1000200043C042C041C000CDD914F13C28E5A16CC9
:1000300078B5509D89441803550053004200740060
:1000400069006E007900200053005000490004034D
:10005000090412010101FF00000881179F0C06012D
:1000600000020001090212000101008032090400AF
:100070000000FF00000011241FBECFEDCDBF10E037
:10008000A0E6B0E0E0EDF7E002C005900D92A236E8
:10009000B107D9F710E0A2E6B0E001C01D92AE3979
:1000A000B107E1F790D392C3ABCFDC019FEF8FEFA5
:1000B00046E2F0E018C02D918227E82FEF70E40FA0
:1000C0003591E82FE295892F932F3170E327EF7058
:1000D0009295392F9F70307E8327E40F35919327B7
:1000E0003170932783276A9532F7809590958D9389
:1000F0009D9308950F931F932F93DF93CF930FB783
:100100000F938299FECF82990BC0829909C0829980
:1001100007C0829905C0829903C000E40ABFACC041
:10012000C0918600DD27C957DF4F0BE014E124E0C2
:10013000829BE9CF3F934F936F9360B330E803C046
:1001400060B3432B4993442764712627215020B381
:100150002471A9F137953C3FA0F56227615060B347
:10016000647137953C3F98F526272150379520B389
:1001700024713C3F90F56227615037953C3F60B356
:100180006471A0F52627215037953C3FC8F520B370
:1001900024716227615037953C3FB0F50A9560B3F2
:1001A0007AF064712627215037953C3F88F520B3BB
:1001B00024716227615037953C3F10F22DC031C049
:1001C00052C0612720B324713F774160C6CF3F778B
:1001D000426060B364712127C7CF3F7744606127D5
:1001E00020B32471622761503795C8CF3F774860AC
:1001F0002127316060B36471262721503795C6CF1F
:100200003F7740616127C1CF3F7740622127C4CF4C
:100210003F7740646127C9CF3F774068212700C0FE
:100220008FCF30E43ABF0B500195C01BD0402881DE
:1002300021FD2DC019811F7740919D00141799F45D
:10024000293691F4009177000023F1F04091850068
:100250004423D1F4409377004091830040939D0064
:10026000C8E7D0E02BC02227209362006F914F9106
:100270003F910AB706FD45CF0F910FBFCF91DF9198
:100280002F911F910F911895C1E6D0E016C02170F3
:1002900059F320916200222339F3409185004423D1
:1002A00099F70093850020938400009186004BE02D
:1002B000401B40938600C0E6D0E001E022B32B7ED5
:1002C000206111B3146122BB11BB14E130E830FF8F
:1002D000212722BB379547954C3FC0F530FF21279A
:1002E000379522BB47954C3FA8F530FF212737951E
:1002F000000022BB47954C3F78F530FF212737950A
:10030000000022BB47954C3F48F530FF21276991FB
:1003100022BB379547954C3F18F530FF212737957D
:1003200022BB47954C3F00F530FF21273795479575
:1003300022BB4C3FD8F430FF21273795362F479505
:1003400022BB4C3FA8F40A9512F614C0212744277B
:1003500022BBC2CF2127C5CF2127CBCF2127D1CF89
:100360002127442722BBD7CF2127DACF2127DFCF70
:100370002127E5CF2B7E22BB6F914F913F9100E467
:100380000ABFDF91CF9111B3022F206122BB1B7EE8
:10039000DFBFDF912F91000011BB02BB1F910F91B6
:1003A000189585B7836085BF8BB780648BBF7894C1
:1003B00008951F93CF93DF9360918500662309F41E
:1003C00070C080918600CCE0D0E0C81BD109C9572D
:1003D000DF4F81E080936300809184008D3209F0CB
:1003E00052C01E818F8181111FEF8881807661F557
:1003F0008981811104C01882198282E03CC0853055
:1004000021F48A8180938300A3C0863091F482E036
:10041000809363008B818130F9F0823009F1833061
:1004200009F096C08A818823F9F0823009F090C0E3
:100430001FC0883019F481E088831DC08A3009F01C
:1004400087C0188281E017C0CE01DED08F3F99F4BB
:1004500093E0909363000FC082E1C2E5D0E00BC04F
:1004600082E1C4E6D0E007C084E0CEE4D0E003C07F
:1004700088E1C6E3D0E0181708F0182FD093650084
:10048000C093640005C0635011F0CE0151D110E05B
:100490001093660083EC809378001092770010929E
:1004A00085008091770081114CC080916300882382
:1004B00009F447C09091780028E89227909378003B
:1004C00010916600193018F4112379F101C018E079
:1004D000833031F4612F89E790E009D1182F20C0D3
:1004E000E0916400F0916500813061F4EF01A9E7CB
:1004F000B0E09A2F89918D93FE018A2F891B811775
:10050000C8F30AC0A9E7B0E08A2F949131969D9371
:100510009A2F981B9117C8F3F0936500E09364003D
:1005200080916600811B80936600612F89E790E0CF
:10053000BCDD812F8D5F80937700183010F410920E
:1005400063008AE002C0815029F0849BFCCF06C082
:1005500080E093CF1092830010929D00DF91CF91A5
:100560001F910895AC014C5F5F4FFC01A191CF0139
:1005700028E030E0F0E8E0E0BF2FBA2309F0C79AA6
:10058000B09167000B2E00C000000A94E1F7C69AF4
:10059000B09167000B2E00C000000A94E1F7EE0F47
:1005A0008399EF5FC798C698F6952150310921F7D6
:1005B000DB01ED93BD0184179507B9F6089580918D
:1005C0006A0090916B009C012F5F3F4F30936B004E
:1005D00020936A0020916C0027FF02C0880F991FAA
:1005E00080FF01C02860209373009C01232F3327D4
:1005F00026952093740096958795809375006FE6F5
:1006000070E083E790E0AECFFC012181222309F462
:100610006CC04481A42FB0E0213021F48C91808300
:1006200081E008953281223011F43C935CC0532F55
:10063000577081E090E0052E01C0880F0A94EAF718
:10064000233021F480959C91982304C0243021F418
:100650009C91982B9C9347C0253059F430936700A8
:10066000411102C08FE001C08FE29FEF97BB88BBB2
:100670003AC0263021F4C59A18BA17BA34C088B3E4
:10068000811101C030C0273031F4BF01CF01029683
:1006900069DF84E00895283031F430936800838165
:1006A0008093690020C08481958190936B00809332
:1006B0006A00293011F480E203C02B3029F480EA6B
:1006C00080936C008FEF08958281938190936E00E8
:1006D00080936D002A3011F480E403C02C3019F4AB
:1006E00080EC80936C0080E0089588E00895EF929C
:1006F000FF920F931F93CF93DF931F92CDB7DD2708
:100700008C01862F780108C0898359DF909172008F
:10071000F70191937F0189819E2D901B9817A0F37B
:100720000F90DF91CF911F910F91FF90EF9008955F
:10073000CF92DF92EF92FF920F931F93CF93DF93AD
:100740007C01D62EEC01E0E6CE2E30C0899180935C
:10075000760035DF809173008C258093730000E074
:1007600010E01DC06FE670E083E790E0FBDE809153
:10077000720090917600891308C0909168008917E3
:1007800021F090916900891311C02091670030E039
:1007900075E0220F331F7A95E1F7020F131F809146
:1007A0006D0090916E0008171907E0F28C2F8E19DA
:1007B0008D1560F2DF91CF911F910F91FF90EF9017
:1007C000DF90CF900895EDDDF4DDFECFF894FFCFFC
:0207D000D25AFB
:00000001FF
